{
  "contractName": "CO2BoardPPM",
  "abi": [
    {
      "inputs": [
        {
          "internalType": "uint256",
          "name": "_measured",
          "type": "uint256"
        }
      ],
      "name": "addMeasured",
      "outputs": [],
      "stateMutability": "nonpayable",
      "type": "function"
    }
  ],
  "bytecode": "0x6080604052348015600f57600080fd5b5060a08061001e6000396000f3fe6080604052348015600f57600080fd5b506004361060285760003560e01c806324861df514602d575b600080fd5b605660048036036020811015604157600080fd5b81019080803590602001909291905050506058565b005b8060008082825401925050819055505056fea26469706673582212201c4c8a5dcec22c0d6d01661c34a4043f95a0bd47795a71759063ddf92d7a0b9464736f6c63430006090033",
  "source": "pragma solidity 0.6.9;\n\ncontract CO2BoardPPM {\n  uint measured;\n  function addMeasured(uint _measured) public {\n    measured += _measured;\n  }\n}",
  "sourcePath": "/Users/aeharv/project/hackathon/ithaca/contracts/CO2BoardPPM.sol",
  "compiler": {
    "name": "solc",
    "version": "0.6.9+commit.3e3065ac.Linux.g++"
  },
  "schemaVersion": "3.0.16",
  "updatedAt": "2020-06-06T02:18:58.094Z",
  "devdoc": {
    "methods": {}
  },
  "userdoc": {
    "methods": {}
  }
}